:100000000C942A000C9447000C9447000C94470071
:100010000C9447000C9447000C9447000C94470044
:100020000C9447000C9447000C9447000C94470034
:100030000C9447000C9447000C9447000C94470024
:100040000C9447000C9447000C9447000C94470014
:100050000C94470011241FBECFE5D8E0DEBFCDBF12
:1000600010E0A0E6B0E0E2EFFAE002C005900D92E9
:10007000AC3BB107D9F710E0ACEBB0E001C01D928A
:10008000A13CB107E1F70E94DE040C9477050C94C3
:1000900000004130B1F5813099F0813030F082308C
:1000A000D1F0833009F065C021C02BB381E090E02E
:1000B00002C0880F991F6A95E2F7282B2BBB089581
:1000C00028B381E090E002C0880F991F6A95E2F79B
:1000D000282B28BB089525B381E090E002C0880F4B
:1000E000991F6A95E2F7282B25BB089522B381E07A
:1000F00090E002C0880F991F6A95E2F7282B22BB77
:100100000895813099F0813028F08230D9F0833021
:1001100081F524C02BB381E090E002C0880F991FC5
:100120006A95E2F7809582238BBB089528B381E01E
:1001300090E002C0880F991F6A95E2F780958223AC
:1001400088BB089525B381E090E002C0880F991F15
:100150006A95E2F78095822385BB089522B381E0FA
:1001600090E002C0880F991F6A95E2F7809582237C
:1001700082BB0895813049F0813028F0823039F017
:10018000833041F406C06BBB089568BB089565BB1E
:10019000089562BB0895813091F0813028F082305B
:1001A000C9F0833061F521C02BB381E090E002C03B
:1001B000880F991F6A95E2F728272BBB089528B36B
:1001C00081E090E002C0880F991F6A95E2F7282726
:1001D00028BB089525B381E090E002C0880F991FE5
:1001E0006A95E2F7282725BB089522B381E090E0C5
:1001F00002C0880F991F6A95E2F7282722BB08954D
:10020000813051F0813030F0823041F0833079F02C
:1002100080E008958BB303C088B301C085B390E03C
:1002200002C0959587956A95E2F78170089582B32B
:1002300090E002C0959587956A95E2F781700895E0
:10024000813051F0813030F0823041F0833041F024
:1002500080E008958BB3089588B3089585B3089519
:1002600082B308954130A1F4813031F18130C8F07A
:10027000823069F1833009F03FC021B381E090E022
:1002800002C0880F991F6A95E2F7282B21BB0895B9
:10029000813091F0813028F08230C9F0833061F5EF
:1002A00021C02AB381E090E002C0880F991F6A95AF
:1002B000E2F7282B2ABB089527B381E090E002C023
:1002C000880F991F6A95E2F7282B27BB089524B35E
:1002D00081E090E002C0880F991F6A95E2F7282B11
:1002E00024BB089521B381E090E002C0880F991FDC
:1002F0006A95E2F7282B21BB08956130A9F481307B
:1003000051F0813028F0823049F08330E9F409C09F
:100310008FEF8ABB08958FEF87BB08958FEF84BB63
:1003200008958FEF81BB0895813049F0813028F026
:10033000823039F0833041F406C01ABA089517BAF2
:10034000089514BA089511BA089518BA8BBB84E0C1
:1003500088BB80ED97E0FC013197F1F718BA01975F
:10036000F1F708958FEF8ABB87BB84EF91E028EC0B
:1003700030E0F9013197F1F70197D9F718BA88E31E
:100380008BBB44E048BB20ED37E0C9010197F1F792
:1003900018BAC9010197F1F7C9010197F1F718BA25
:1003A0008CE08BBB48BBC9010197F1F718BAC901B2
:1003B0000197F1F7C9010197F1F718BA51E05BBB5A
:1003C00048BBC9010197F1F718BAC9010197F1F7C4
:1003D00080E797E1FC013197F1F718BA4BBB48BBB6
:1003E000F9013197F1F718BAF9013197F1F701974F
:1003F000F1F718BA5BBB48BBC9010197F1F718BA0E
:10040000C9010197F1F7089521E028BB8BBB85E076
:1004100088BB80ED97E0FC013197F1F728BB01978D
:10042000F1F70895FC0141E055E020ED37E00AC006
:1004300048BB8BBB58BBC9010197F1F748BBC90149
:100440000197F1F78191882399F708950F931F93EE
:10045000DF93CF9300D000D000D0CDB7DEB79C01A2
:100460008E010F5F1F4FE0E0F0E010C0C9016AE0AD
:1004700070E00E945005D8018D939D938D01C901B4
:100480006AE070E00E9450059B0131961216130637
:100490006CF33197EE0FFF1FDE011196AE0FBF1FF9
:1004A000AE014150504061E075E020ED37E00DC0F5
:1004B0008C91805D68BB8BBB78BBC9010197F1F75C
:1004C00068BBC9010197F1F71297A417B50781F727
:1004D00026960FB6F894DEBF0FBECDBFCF91DF9149
:1004E0001F910F910895DC016B3251F06C3218F4BA
:1004F0006A32A1F522C06D3239F06F3279F527C02A
:10050000CA018A0F9B1F20C0A417B50794F481E08D
:1005100088BB6BBB95E098BB20ED37E0F9013197C4
:10052000F1F788BBC9010197F1F7CA018A1B9B0B40
:100530000BC0CD01841B950B07C04A9FC0014B9F88
:10054000900D5A9F900D11240E9426020895CD010E
:10055000BA010E945005CB010E9426020895823004
:1005600088F4603178F48111605C606818BA6BBB04
:1005700084E088BB80ED97E0FC013197F1F718BA71
:100580000197F1F708958330C9F0843028F4813061
:1005900079F0823080F409C08530B1F0853088F080
:1005A0008630A9F0873019F515C018BA80E414C058
:1005B00018BA88E411C018BA86E50EC018BA84E6E5
:1005C0000BC018BA82E708C018BA80E805C018BA8C
:1005D00088E802C018BA86E98BBB84E088BB80ED4E
:1005E00097E0FC013197F1F718BA0197F1F720E095
:1005F00030E0A1E0B5E040ED57E0FB01E20FF31F72
:100600008081A8BB8BBBB8BBCA010197F1F7A8BB1F
:10061000CA010197F1F72F5F3F4F2830310569F785
:100620000895809908C0809BFECF80E29EE40197E8
:10063000F1F780E0089580B3869580FD08C0819B26
:10064000FECF80E29EE40197F1F781E0089580B348
:100650008695869580FD08C0829BFECF80E29EE451
:100660000197F1F782E0089580B386958695869587
:1006700080FF02C084E00895839BFECF80E29EE469
:100680000197F1F783E0089580E065E00E94AF02F2
:100690008FEF0E94040208950F931F938C01FC01B9
:1006A000808161810E94AF028EEF0E940402F801F6
:1006B000808161810E94AF021F910F9108951F9365
:1006C000182F8091C000863020F48F5F8093C00087
:1006D000B3C08091BD006091BE000E94AF02113096
:1006E00069F1113038F0123009F44EC0133009F0BE
:1006F00088C06AC06091BE006F3008F082C064306C
:1007000029F48091BD00882309F47BC08091BD004D
:100710000E94AF028EEF0E9404028091BD006091A2
:10072000BE000E94AF026091BE006F5F8091BD006D
:100730000E94AF028091BE008F5F23C06091BE0017
:10074000662309F45EC0663029F48091BD008823D9
:1007500009F457C08091BD000E94AF028EEF0E9445
:1007600004028091BD006091BE000E94AF026091C2
:10077000BE0061508091BD000E94AF028091BE001A
:1007800081508093BE003DC08091BD008823C9F197
:100790006091BE00653011F4813099F10E94AF0282
:1007A0008EEF0E9404028091BD006091BE000E9405
:1007B000AF028091BD0081506091BE000E94AF02E7
:1007C0008091BD0081501BC08091BD008130C9F077
:1007D0006091BE000E94AF028EEF0E9404028091E1
:1007E000BD006091BE000E94AF028091BD008F5F8E
:1007F0006091BE000E94AF028091BD008F5F809328
:10080000BD008091BC00813019F41092BC0005C07D
:10081000882319F481E08093BC008091BD00609131
:10082000BE000E94AF0283E00E9404028091BD00DE
:100830006091BE000E94AF021F9108951F938091A6
:10084000A200883028F48F5F8093A20010E024C0BB
:1008500082E890E00E944C038091A300813049F42B
:10086000809183008F5F809383008C3011F410920D
:10087000A3008091A300882361F4809183008150BC
:1008800080938300863029F481E08093A30013E0F5
:1008900001C010E01092A20080918200609183005C
:1008A0000E94AF02812F0E9404021F910895CF93EE
:1008B000DF93C4E8D0E08A818130B9F4888169810E
:1008C0000E94AF0285EA0E94040298818091BD00D7
:1008D000981759F499818091BE00981731F41A82C3
:1008E0008091BF008F5F8093BF00239680E0C23A63
:1008F000D80709F780E06EE00E94AF028091BF0048
:1009000090E00E942602DF91CF9108959091BD0062
:1009100080918200981769F59091BE0080918300C4
:10092000981739F581E00E94A50180E063E00E94FC
:10093000AF0280E690E00E94120281E060E00E9437
:10094000AF028AE690E00E9412021092BD0010925F
:10095000BE00E6E8F0E081E08083339690E0E43A80
:10096000F907D1F71092BF008499FECF81E00E9471
:10097000A5018091BF008A3001F580E063E00E940C
:10098000AF028AE790E00E94120281E060E00E94DC
:10099000AF028AE690E00E9412021092BF00E6E8E1
:1009A000F0E081E08083339690E0E43AF907D1F7F4
:1009B0008499FECF81E00E94A50108950F931F93B3
:1009C000DF93CF93CDB7DEB768970FB6F894DEBF4D
:1009D0000FBECDBFDE011196E4EBF0E088E00190A0
:1009E0000D928150E1F7DE011996ECEAF0E088E023
:1009F00001900D928150E1F7DE015196E4EAF0E0BA
:100A000088E001900D928150E1F70E94B20111BA85
:100A10008FEF82BB80E0BE016F5F7F4F0E94C302F9
:100A200084EF91E028EC30E0F9013197F1F701977C
:100A3000D9F781E0BE01675F7F4F0E94C30284EF58
:100A400091E028EC30E0F9013197F1F70197D9F7FF
:100A500083E0BE016F5E7F4F0E94C30284EF91E08E
:100A600028EC30E0F9013197F1F70197D9F781E0EF
:100A70000E94A50108EC10E00E9411030E945F0390
:100A80000E941E0484EF91E0F8013197F1F701977D
:100A9000D9F70E9457040E9444030E948604ECCFB9
:100AA00097FB092E07260AD077FD04D00CD006D07C
:100AB00000201AF4709561957F4F0895F6F7909590
:100AC00081959F4F0895AA1BBB1B51E107C0AA1F28
:100AD000BB1FA617B70710F0A61BB70B881F991FDF
:100AE0005A95A9F780959095BC01CD010895F89489
:020AF000FFCF36
:100AF20047414D45204F56455200505245535320D1
:100B0200524553455420504F5400594F5520574990
:100B12004E0001050001010002010003010007016E
:100B2200000801000901010801010901010A01018E
:100B32000B010701000E1F07071F0E00000E1F1DED
:0C0B42001F1F0E00000E1F1C1C1F0E00C9
:00000001FF
